{
  "_format": "hh-sol-artifact-1",
  "contractName": "CommunityPets",
  "sourceName": "contracts/CommunityPets.sol",
  "abi": [
    {
      "inputs": [],
      "stateMutability": "nonpayable",
      "type": "constructor"
    },
    {
      "anonymous": false,
      "inputs": [
        {
          "indexed": true,
          "internalType": "address",
          "name": "owner",
          "type": "address"
        },
        {
          "indexed": true,
          "internalType": "address",
          "name": "approved",
          "type": "address"
        },
        {
          "indexed": true,
          "internalType": "uint256",
          "name": "tokenId",
          "type": "uint256"
        }
      ],
      "name": "Approval",
      "type": "event"
    },
    {
      "anonymous": false,
      "inputs": [
        {
          "indexed": true,
          "internalType": "address",
          "name": "owner",
          "type": "address"
        },
        {
          "indexed": true,
          "internalType": "address",
          "name": "operator",
          "type": "address"
        },
        {
          "indexed": false,
          "internalType": "bool",
          "name": "approved",
          "type": "bool"
        }
      ],
      "name": "ApprovalForAll",
      "type": "event"
    },
    {
      "anonymous": false,
      "inputs": [
        {
          "indexed": false,
          "internalType": "uint256",
          "name": "id",
          "type": "uint256"
        },
        {
          "indexed": false,
          "internalType": "string",
          "name": "cid",
          "type": "string"
        },
        {
          "indexed": false,
          "internalType": "uint256",
          "name": "targetAmmount",
          "type": "uint256"
        },
        {
          "indexed": false,
          "internalType": "address",
          "name": "organizer",
          "type": "address"
        }
      ],
      "name": "FundraiserCreated",
      "type": "event"
    },
    {
      "anonymous": false,
      "inputs": [
        {
          "indexed": true,
          "internalType": "address",
          "name": "from",
          "type": "address"
        },
        {
          "indexed": true,
          "internalType": "address",
          "name": "to",
          "type": "address"
        },
        {
          "indexed": true,
          "internalType": "uint256",
          "name": "tokenId",
          "type": "uint256"
        }
      ],
      "name": "Transfer",
      "type": "event"
    },
    {
      "inputs": [],
      "name": "_totalFundraisers",
      "outputs": [
        {
          "internalType": "uint256",
          "name": "",
          "type": "uint256"
        }
      ],
      "stateMutability": "view",
      "type": "function"
    },
    {
      "inputs": [],
      "name": "_totalNFTs",
      "outputs": [
        {
          "internalType": "uint256",
          "name": "_value",
          "type": "uint256"
        }
      ],
      "stateMutability": "view",
      "type": "function"
    },
    {
      "inputs": [
        {
          "internalType": "address",
          "name": "to",
          "type": "address"
        },
        {
          "internalType": "uint256",
          "name": "tokenId",
          "type": "uint256"
        }
      ],
      "name": "approve",
      "outputs": [],
      "stateMutability": "nonpayable",
      "type": "function"
    },
    {
      "inputs": [
        {
          "internalType": "address",
          "name": "owner",
          "type": "address"
        }
      ],
      "name": "balanceOf",
      "outputs": [
        {
          "internalType": "uint256",
          "name": "",
          "type": "uint256"
        }
      ],
      "stateMutability": "view",
      "type": "function"
    },
    {
      "inputs": [
        {
          "internalType": "string",
          "name": "_cid",
          "type": "string"
        },
        {
          "internalType": "uint256",
          "name": "_targetAmmount",
          "type": "uint256"
        }
      ],
      "name": "createFoundraiser",
      "outputs": [],
      "stateMutability": "nonpayable",
      "type": "function"
    },
    {
      "inputs": [
        {
          "internalType": "uint256",
          "name": "_donationId",
          "type": "uint256"
        },
        {
          "internalType": "uint256",
          "name": "_donationAmmount",
          "type": "uint256"
        }
      ],
      "name": "donate",
      "outputs": [],
      "stateMutability": "nonpayable",
      "type": "function"
    },
    {
      "inputs": [
        {
          "internalType": "uint256",
          "name": "",
          "type": "uint256"
        }
      ],
      "name": "fundraiserList",
      "outputs": [
        {
          "internalType": "uint256",
          "name": "id",
          "type": "uint256"
        },
        {
          "internalType": "string",
          "name": "cid",
          "type": "string"
        },
        {
          "internalType": "uint256",
          "name": "targetAmmount",
          "type": "uint256"
        },
        {
          "internalType": "uint256",
          "name": "totalDonations",
          "type": "uint256"
        },
        {
          "internalType": "address",
          "name": "organizer",
          "type": "address"
        }
      ],
      "stateMutability": "view",
      "type": "function"
    },
    {
      "inputs": [],
      "name": "getAllFundraisers",
      "outputs": [
        {
          "components": [
            {
              "internalType": "uint256",
              "name": "id",
              "type": "uint256"
            },
            {
              "internalType": "string",
              "name": "cid",
              "type": "string"
            },
            {
              "internalType": "uint256",
              "name": "targetAmmount",
              "type": "uint256"
            },
            {
              "internalType": "uint256",
              "name": "totalDonations",
              "type": "uint256"
            },
            {
              "internalType": "address",
              "name": "organizer",
              "type": "address"
            }
          ],
          "internalType": "struct CommunityPets.Fundraiser[]",
          "name": "",
          "type": "tuple[]"
        }
      ],
      "stateMutability": "view",
      "type": "function"
    },
    {
      "inputs": [
        {
          "internalType": "uint256",
          "name": "tokenId",
          "type": "uint256"
        }
      ],
      "name": "getApproved",
      "outputs": [
        {
          "internalType": "address",
          "name": "",
          "type": "address"
        }
      ],
      "stateMutability": "view",
      "type": "function"
    },
    {
      "inputs": [
        {
          "internalType": "address",
          "name": "owner",
          "type": "address"
        },
        {
          "internalType": "address",
          "name": "operator",
          "type": "address"
        }
      ],
      "name": "isApprovedForAll",
      "outputs": [
        {
          "internalType": "bool",
          "name": "",
          "type": "bool"
        }
      ],
      "stateMutability": "view",
      "type": "function"
    },
    {
      "inputs": [],
      "name": "name",
      "outputs": [
        {
          "internalType": "string",
          "name": "",
          "type": "string"
        }
      ],
      "stateMutability": "view",
      "type": "function"
    },
    {
      "inputs": [
        {
          "internalType": "uint256",
          "name": "tokenId",
          "type": "uint256"
        }
      ],
      "name": "ownerOf",
      "outputs": [
        {
          "internalType": "address",
          "name": "",
          "type": "address"
        }
      ],
      "stateMutability": "view",
      "type": "function"
    },
    {
      "inputs": [
        {
          "internalType": "address",
          "name": "from",
          "type": "address"
        },
        {
          "internalType": "address",
          "name": "to",
          "type": "address"
        },
        {
          "internalType": "uint256",
          "name": "tokenId",
          "type": "uint256"
        }
      ],
      "name": "safeTransferFrom",
      "outputs": [],
      "stateMutability": "nonpayable",
      "type": "function"
    },
    {
      "inputs": [
        {
          "internalType": "address",
          "name": "from",
          "type": "address"
        },
        {
          "internalType": "address",
          "name": "to",
          "type": "address"
        },
        {
          "internalType": "uint256",
          "name": "tokenId",
          "type": "uint256"
        },
        {
          "internalType": "bytes",
          "name": "data",
          "type": "bytes"
        }
      ],
      "name": "safeTransferFrom",
      "outputs": [],
      "stateMutability": "nonpayable",
      "type": "function"
    },
    {
      "inputs": [
        {
          "internalType": "address",
          "name": "operator",
          "type": "address"
        },
        {
          "internalType": "bool",
          "name": "approved",
          "type": "bool"
        }
      ],
      "name": "setApprovalForAll",
      "outputs": [],
      "stateMutability": "nonpayable",
      "type": "function"
    },
    {
      "inputs": [
        {
          "internalType": "bytes4",
          "name": "interfaceId",
          "type": "bytes4"
        }
      ],
      "name": "supportsInterface",
      "outputs": [
        {
          "internalType": "bool",
          "name": "",
          "type": "bool"
        }
      ],
      "stateMutability": "view",
      "type": "function"
    },
    {
      "inputs": [],
      "name": "symbol",
      "outputs": [
        {
          "internalType": "string",
          "name": "",
          "type": "string"
        }
      ],
      "stateMutability": "view",
      "type": "function"
    },
    {
      "inputs": [
        {
          "internalType": "uint256",
          "name": "tokenId",
          "type": "uint256"
        }
      ],
      "name": "tokenURI",
      "outputs": [
        {
          "internalType": "string",
          "name": "",
          "type": "string"
        }
      ],
      "stateMutability": "view",
      "type": "function"
    },
    {
      "inputs": [
        {
          "internalType": "address",
          "name": "from",
          "type": "address"
        },
        {
          "internalType": "address",
          "name": "to",
          "type": "address"
        },
        {
          "internalType": "uint256",
          "name": "tokenId",
          "type": "uint256"
        }
      ],
      "name": "transferFrom",
      "outputs": [],
      "stateMutability": "nonpayable",
      "type": "function"
    }
  ],
  "bytecode": "0x608060405260006008553480156200001657600080fd5b506040518060400160405280600e81526020017f436f6d6d756e69747920506574730000000000000000000000000000000000008152506040518060400160405280600281526020017f435000000000000000000000000000000000000000000000000000000000000081525081600090805190602001906200009b929190620000bd565b508060019080519060200190620000b4929190620000bd565b505050620001d2565b828054620000cb906200016d565b90600052602060002090601f016020900481019282620000ef57600085556200013b565b82601f106200010a57805160ff19168380011785556200013b565b828001600101855582156200013b579182015b828111156200013a5782518255916020019190600101906200011d565b5b5090506200014a91906200014e565b5090565b5b80821115620001695760008160009055506001016200014f565b5090565b600060028204905060018216806200018657607f821691505b602082108114156200019d576200019c620001a3565b5b50919050565b7f4e487b7100000000000000000000000000000000000000000000000000000000600052602260045260246000fd5b612cb280620001e26000396000f3fe608060405234801561001057600080fd5b50600436106101215760003560e01c806370a08231116100ad578063ab09048c11610071578063ab09048c14610306578063b88d4fde14610324578063c87b56dd14610340578063d0c03f7e14610370578063e985e9c5146103a457610121565b806370a0823114610262578063929b902c1461029257806395d89b41146102b0578063a22cb465146102ce578063aa9919a7146102ea57610121565b8063095ea7b3116100f4578063095ea7b3146101c25780630cdd53f6146101de57806323b872dd146101fa57806342842e0e146102165780636352211e1461023257610121565b806301ffc9a71461012657806306fdde0314610156578063081812fc1461017457806308e35664146101a4575b600080fd5b610140600480360381019061013b9190611e3d565b6103d4565b60405161014d9190612387565b60405180910390f35b61015e6104b6565b60405161016b91906123a2565b60405180910390f35b61018e60048036038101906101899190611ee7565b610548565b60405161019b91906122fe565b60405180910390f35b6101ac61058e565b6040516101b99190612365565b60405180910390f35b6101dc60048036038101906101d79190611e01565b6107a6565b005b6101f860048036038101906101f39190611f10565b6108be565b005b610214600480360381019061020f9190611cfb565b6108f5565b005b610230600480360381019061022b9190611cfb565b610955565b005b61024c60048036038101906102479190611ee7565b610975565b60405161025991906122fe565b60405180910390f35b61027c60048036038101906102779190611c96565b610a27565b60405161028991906124e4565b60405180910390f35b61029a610adf565b6040516102a791906124e4565b60405180910390f35b6102b8610ae5565b6040516102c591906123a2565b60405180910390f35b6102e860048036038101906102e39190611dc5565b610b77565b005b61030460048036038101906102ff9190611e8f565b610b8d565b005b61030e610d09565b60405161031b91906124e4565b60405180910390f35b61033e60048036038101906103399190611d4a565b610d15565b005b61035a60048036038101906103559190611ee7565b610d77565b60405161036791906123a2565b60405180910390f35b61038a60048036038101906103859190611ee7565b610e8a565b60405161039b95949392919061254d565b60405180910390f35b6103be60048036038101906103b99190611cbf565b610f68565b6040516103cb9190612387565b60405180910390f35b60007f80ac58cd000000000000000000000000000000000000000000000000000000007bffffffffffffffffffffffffffffffffffffffffffffffffffffffff1916827bffffffffffffffffffffffffffffffffffffffffffffffffffffffff1916148061049f57507f5b5e139f000000000000000000000000000000000000000000000000000000007bffffffffffffffffffffffffffffffffffffffffffffffffffffffff1916827bffffffffffffffffffffffffffffffffffffffffffffffffffffffff1916145b806104af57506104ae82610ffc565b5b9050919050565b6060600080546104c5906127fb565b80601f01602080910402602001604051908101604052809291908181526020018280546104f1906127fb565b801561053e5780601f106105135761010080835404028352916020019161053e565b820191906000526020600020905b81548152906001019060200180831161052157829003601f168201915b5050505050905090565b600061055382611066565b6004600083815260200190815260200160002060009054906101000a900473ffffffffffffffffffffffffffffffffffffffff169050919050565b6060600060085467ffffffffffffffff8111156105d4577f4e487b7100000000000000000000000000000000000000000000000000000000600052604160045260246000fd5b60405190808252806020026020018201604052801561060d57816020015b6105fa611a93565b8152602001906001900390816105f25790505b50905060005b60085481101561079e576000600960008381526020019081526020016000209050806040518060a00160405290816000820154815260200160018201805461065a906127fb565b80601f0160208091040260200160405190810160405280929190818152602001828054610686906127fb565b80156106d35780601f106106a8576101008083540402835291602001916106d3565b820191906000526020600020905b8154815290600101906020018083116106b657829003601f168201915b5050505050815260200160028201548152602001600382015481526020016004820160009054906101000a900473ffffffffffffffffffffffffffffffffffffffff1673ffffffffffffffffffffffffffffffffffffffff1673ffffffffffffffffffffffffffffffffffffffff168152505083838151811061077f577f4e487b7100000000000000000000000000000000000000000000000000000000600052603260045260246000fd5b60200260200101819052505080806107969061285e565b915050610613565b508091505090565b60006107b182610975565b90508073ffffffffffffffffffffffffffffffffffffffff168373ffffffffffffffffffffffffffffffffffffffff161415610822576040517f08c379a0000000000000000000000000000000000000000000000000000000008152600401610819906124a4565b60405180910390fd5b8073ffffffffffffffffffffffffffffffffffffffff166108416110b1565b73ffffffffffffffffffffffffffffffffffffffff161480610870575061086f8161086a6110b1565b610f68565b5b6108af576040517f08c379a00000000000000000000000000000000000000000000000000000000081526004016108a690612464565b60405180910390fd5b6108b983836110b9565b505050565b6000600960008481526020019081526020016000209050818160030160008282546108e9919061268a565b92505081905550505050565b6109066109006110b1565b82611172565b610945576040517f08c379a000000000000000000000000000000000000000000000000000000000815260040161093c906124c4565b60405180910390fd5b610950838383611207565b505050565b61097083838360405180602001604052806000815250610d15565b505050565b6000806002600084815260200190815260200160002060009054906101000a900473ffffffffffffffffffffffffffffffffffffffff169050600073ffffffffffffffffffffffffffffffffffffffff168173ffffffffffffffffffffffffffffffffffffffff161415610a1e576040517f08c379a0000000000000000000000000000000000000000000000000000000008152600401610a1590612484565b60405180910390fd5b80915050919050565b60008073ffffffffffffffffffffffffffffffffffffffff168273ffffffffffffffffffffffffffffffffffffffff161415610a98576040517f08c379a0000000000000000000000000000000000000000000000000000000008152600401610a8f90612444565b60405180910390fd5b600360008373ffffffffffffffffffffffffffffffffffffffff1673ffffffffffffffffffffffffffffffffffffffff168152602001908152602001600020549050919050565b60085481565b606060018054610af4906127fb565b80601f0160208091040260200160405190810160405280929190818152602001828054610b20906127fb565b8015610b6d5780601f10610b4257610100808354040283529160200191610b6d565b820191906000526020600020905b815481529060010190602001808311610b5057829003601f168201915b5050505050905090565b610b89610b826110b1565b838361146e565b5050565b6040518060a00160405280600854815260200184848080601f016020809104026020016040519081016040528093929190818152602001838380828437600081840152601f19601f820116905080830192505050505050508152602001828152602001600081526020013373ffffffffffffffffffffffffffffffffffffffff16815250600960006008548152602001908152602001600020600082015181600001556020820151816001019080519060200190610c4c929190611ad8565b50604082015181600201556060820151816003015560808201518160040160006101000a81548173ffffffffffffffffffffffffffffffffffffffff021916908373ffffffffffffffffffffffffffffffffffffffff1602179055509050507f1c8942d9442cc26aff2b20467ff2dccec8e1f808bfe9168de2c367cf875be24760085484848433604051610ce49594939291906124ff565b60405180910390a160086000815480929190610cff9061285e565b9190505550505050565b60078060000154905081565b610d26610d206110b1565b83611172565b610d65576040517f08c379a0000000000000000000000000000000000000000000000000000000008152600401610d5c906124c4565b60405180910390fd5b610d71848484846115db565b50505050565b6060610d8282611066565b6000600660008481526020019081526020016000208054610da2906127fb565b80601f0160208091040260200160405190810160405280929190818152602001828054610dce906127fb565b8015610e1b5780601f10610df057610100808354040283529160200191610e1b565b820191906000526020600020905b815481529060010190602001808311610dfe57829003601f168201915b505050505090506000610e2c611637565b9050600081511415610e42578192505050610e85565b600082511115610e77578082604051602001610e5f9291906122da565b60405160208183030381529060405292505050610e85565b610e808461164e565b925050505b919050565b6009602052806000526040600020600091509050806000015490806001018054610eb3906127fb565b80601f0160208091040260200160405190810160405280929190818152602001828054610edf906127fb565b8015610f2c5780601f10610f0157610100808354040283529160200191610f2c565b820191906000526020600020905b815481529060010190602001808311610f0f57829003601f168201915b5050505050908060020154908060030154908060040160009054906101000a900473ffffffffffffffffffffffffffffffffffffffff16905085565b6000600560008473ffffffffffffffffffffffffffffffffffffffff1673ffffffffffffffffffffffffffffffffffffffff16815260200190815260200160002060008373ffffffffffffffffffffffffffffffffffffffff1673ffffffffffffffffffffffffffffffffffffffff16815260200190815260200160002060009054906101000a900460ff16905092915050565b60007f01ffc9a7000000000000000000000000000000000000000000000000000000007bffffffffffffffffffffffffffffffffffffffffffffffffffffffff1916827bffffffffffffffffffffffffffffffffffffffffffffffffffffffff1916149050919050565b61106f816116b6565b6110ae576040517f08c379a00000000000000000000000000000000000000000000000000000000081526004016110a590612484565b60405180910390fd5b50565b600033905090565b816004600083815260200190815260200160002060006101000a81548173ffffffffffffffffffffffffffffffffffffffff021916908373ffffffffffffffffffffffffffffffffffffffff160217905550808273ffffffffffffffffffffffffffffffffffffffff1661112c83610975565b73ffffffffffffffffffffffffffffffffffffffff167f8c5be1e5ebec7d5bd14f71427d1e84f3dd0314c0f7b2291e5b200ac8c7c3b92560405160405180910390a45050565b60008061117e83610975565b90508073ffffffffffffffffffffffffffffffffffffffff168473ffffffffffffffffffffffffffffffffffffffff1614806111c057506111bf8185610f68565b5b806111fe57508373ffffffffffffffffffffffffffffffffffffffff166111e684610548565b73ffffffffffffffffffffffffffffffffffffffff16145b91505092915050565b8273ffffffffffffffffffffffffffffffffffffffff1661122782610975565b73ffffffffffffffffffffffffffffffffffffffff161461127d576040517f08c379a0000000000000000000000000000000000000000000000000000000008152600401611274906123e4565b60405180910390fd5b600073ffffffffffffffffffffffffffffffffffffffff168273ffffffffffffffffffffffffffffffffffffffff1614156112ed576040517f08c379a00000000000000000000000000000000000000000000000000000000081526004016112e490612404565b60405180910390fd5b6112f8838383611722565b6113036000826110b9565b6001600360008573ffffffffffffffffffffffffffffffffffffffff1673ffffffffffffffffffffffffffffffffffffffff16815260200190815260200160002060008282546113539190612711565b925050819055506001600360008473ffffffffffffffffffffffffffffffffffffffff1673ffffffffffffffffffffffffffffffffffffffff16815260200190815260200160002060008282546113aa919061268a565b92505081905550816002600083815260200190815260200160002060006101000a81548173ffffffffffffffffffffffffffffffffffffffff021916908373ffffffffffffffffffffffffffffffffffffffff160217905550808273ffffffffffffffffffffffffffffffffffffffff168473ffffffffffffffffffffffffffffffffffffffff167fddf252ad1be2c89b69c2b068fc378daa952ba7f163c4a11628f55a4df523b3ef60405160405180910390a4611469838383611727565b505050565b8173ffffffffffffffffffffffffffffffffffffffff168373ffffffffffffffffffffffffffffffffffffffff1614156114dd576040517f08c379a00000000000000000000000000000000000000000000000000000000081526004016114d490612424565b60405180910390fd5b80600560008573ffffffffffffffffffffffffffffffffffffffff1673ffffffffffffffffffffffffffffffffffffffff16815260200190815260200160002060008473ffffffffffffffffffffffffffffffffffffffff1673ffffffffffffffffffffffffffffffffffffffff16815260200190815260200160002060006101000a81548160ff0219169083151502179055508173ffffffffffffffffffffffffffffffffffffffff168373ffffffffffffffffffffffffffffffffffffffff167f17307eab39ab6107e8899845ad3d59bd9653f200f220920489ca2b5937696c31836040516115ce9190612387565b60405180910390a3505050565b6115e6848484611207565b6115f28484848461172c565b611631576040517f08c379a0000000000000000000000000000000000000000000000000000000008152600401611628906123c4565b60405180910390fd5b50505050565b606060405180602001604052806000815250905090565b606061165982611066565b6000611663611637565b9050600081511161168357604051806020016040528060008152506116ae565b8061168d846118c3565b60405160200161169e9291906122da565b6040516020818303038152906040525b915050919050565b60008073ffffffffffffffffffffffffffffffffffffffff166002600084815260200190815260200160002060009054906101000a900473ffffffffffffffffffffffffffffffffffffffff1673ffffffffffffffffffffffffffffffffffffffff1614159050919050565b505050565b505050565b600061174d8473ffffffffffffffffffffffffffffffffffffffff16611a70565b156118b6578373ffffffffffffffffffffffffffffffffffffffff1663150b7a026117766110b1565b8786866040518563ffffffff1660e01b81526004016117989493929190612319565b602060405180830381600087803b1580156117b257600080fd5b505af19250505080156117e357506040513d601f19601f820116820180604052508101906117e09190611e66565b60015b611866573d8060008114611813576040519150601f19603f3d011682016040523d82523d6000602084013e611818565b606091505b5060008151141561185e576040517f08c379a0000000000000000000000000000000000000000000000000000000008152600401611855906123c4565b60405180910390fd5b805181602001fd5b63150b7a0260e01b7bffffffffffffffffffffffffffffffffffffffffffffffffffffffff1916817bffffffffffffffffffffffffffffffffffffffffffffffffffffffff1916149150506118bb565b600190505b949350505050565b6060600082141561190b576040518060400160405280600181526020017f30000000000000000000000000000000000000000000000000000000000000008152509050611a6b565b600082905060005b6000821461193d5780806119269061285e565b915050600a8261193691906126e0565b9150611913565b60008167ffffffffffffffff81111561197f577f4e487b7100000000000000000000000000000000000000000000000000000000600052604160045260246000fd5b6040519080825280601f01601f1916602001820160405280156119b15781602001600182028036833780820191505090505b5090505b60008514611a64576001826119ca9190612711565b9150600a856119d991906128a7565b60306119e5919061268a565b60f81b818381518110611a21577f4e487b7100000000000000000000000000000000000000000000000000000000600052603260045260246000fd5b60200101907effffffffffffffffffffffffffffffffffffffffffffffffffffffffffffff1916908160001a905350600a85611a5d91906126e0565b94506119b5565b8093505050505b919050565b6000808273ffffffffffffffffffffffffffffffffffffffff163b119050919050565b6040518060a0016040528060008152602001606081526020016000815260200160008152602001600073ffffffffffffffffffffffffffffffffffffffff1681525090565b828054611ae4906127fb565b90600052602060002090601f016020900481019282611b065760008555611b4d565b82601f10611b1f57805160ff1916838001178555611b4d565b82800160010185558215611b4d579182015b82811115611b4c578251825591602001919060010190611b31565b5b509050611b5a9190611b5e565b5090565b5b80821115611b77576000816000905550600101611b5f565b5090565b6000611b8e611b89846125cc565b6125a7565b905082815260208101848484011115611ba657600080fd5b611bb18482856127b9565b509392505050565b600081359050611bc881612c20565b92915050565b600081359050611bdd81612c37565b92915050565b600081359050611bf281612c4e565b92915050565b600081519050611c0781612c4e565b92915050565b600082601f830112611c1e57600080fd5b8135611c2e848260208601611b7b565b91505092915050565b60008083601f840112611c4957600080fd5b8235905067ffffffffffffffff811115611c6257600080fd5b602083019150836001820283011115611c7a57600080fd5b9250929050565b600081359050611c9081612c65565b92915050565b600060208284031215611ca857600080fd5b6000611cb684828501611bb9565b91505092915050565b60008060408385031215611cd257600080fd5b6000611ce085828601611bb9565b9250506020611cf185828601611bb9565b9150509250929050565b600080600060608486031215611d1057600080fd5b6000611d1e86828701611bb9565b9350506020611d2f86828701611bb9565b9250506040611d4086828701611c81565b9150509250925092565b60008060008060808587031215611d6057600080fd5b6000611d6e87828801611bb9565b9450506020611d7f87828801611bb9565b9350506040611d9087828801611c81565b925050606085013567ffffffffffffffff811115611dad57600080fd5b611db987828801611c0d565b91505092959194509250565b60008060408385031215611dd857600080fd5b6000611de685828601611bb9565b9250506020611df785828601611bce565b9150509250929050565b60008060408385031215611e1457600080fd5b6000611e2285828601611bb9565b9250506020611e3385828601611c81565b9150509250929050565b600060208284031215611e4f57600080fd5b6000611e5d84828501611be3565b91505092915050565b600060208284031215611e7857600080fd5b6000611e8684828501611bf8565b91505092915050565b600080600060408486031215611ea457600080fd5b600084013567ffffffffffffffff811115611ebe57600080fd5b611eca86828701611c37565b93509350506020611edd86828701611c81565b9150509250925092565b600060208284031215611ef957600080fd5b6000611f0784828501611c81565b91505092915050565b60008060408385031215611f2357600080fd5b6000611f3185828601611c81565b9250506020611f4285828601611c81565b9150509250929050565b6000611f588383612246565b905092915050565b611f6981612745565b82525050565b611f7881612745565b82525050565b6000611f898261260d565b611f93818561263b565b935083602082028501611fa5856125fd565b8060005b85811015611fe15784840389528151611fc28582611f4c565b9450611fcd8361262e565b925060208a01995050600181019050611fa9565b50829750879550505050505092915050565b611ffc81612757565b82525050565b600061200d82612618565b612017818561264c565b93506120278185602086016127c8565b61203081612994565b840191505092915050565b6000612047838561266e565b93506120548385846127b9565b61205d83612994565b840190509392505050565b600061207382612623565b61207d818561265d565b935061208d8185602086016127c8565b61209681612994565b840191505092915050565b60006120ac82612623565b6120b6818561266e565b93506120c68185602086016127c8565b6120cf81612994565b840191505092915050565b60006120e582612623565b6120ef818561267f565b93506120ff8185602086016127c8565b80840191505092915050565b600061211860328361266e565b9150612123826129a5565b604082019050919050565b600061213b60258361266e565b9150612146826129f4565b604082019050919050565b600061215e60248361266e565b915061216982612a43565b604082019050919050565b600061218160198361266e565b915061218c82612a92565b602082019050919050565b60006121a460298361266e565b91506121af82612abb565b604082019050919050565b60006121c7603e8361266e565b91506121d282612b0a565b604082019050919050565b60006121ea60188361266e565b91506121f582612b59565b602082019050919050565b600061220d60218361266e565b915061221882612b82565b604082019050919050565b6000612230602e8361266e565b915061223b82612bd1565b604082019050919050565b600060a08301600083015161225e60008601826122bc565b50602083015184820360208601526122768282612068565b915050604083015161228b60408601826122bc565b50606083015161229e60608601826122bc565b5060808301516122b16080860182611f60565b508091505092915050565b6122c5816127af565b82525050565b6122d4816127af565b82525050565b60006122e682856120da565b91506122f282846120da565b91508190509392505050565b60006020820190506123136000830184611f6f565b92915050565b600060808201905061232e6000830187611f6f565b61233b6020830186611f6f565b61234860408301856122cb565b818103606083015261235a8184612002565b905095945050505050565b6000602082019050818103600083015261237f8184611f7e565b905092915050565b600060208201905061239c6000830184611ff3565b92915050565b600060208201905081810360008301526123bc81846120a1565b905092915050565b600060208201905081810360008301526123dd8161210b565b9050919050565b600060208201905081810360008301526123fd8161212e565b9050919050565b6000602082019050818103600083015261241d81612151565b9050919050565b6000602082019050818103600083015261243d81612174565b9050919050565b6000602082019050818103600083015261245d81612197565b9050919050565b6000602082019050818103600083015261247d816121ba565b9050919050565b6000602082019050818103600083015261249d816121dd565b9050919050565b600060208201905081810360008301526124bd81612200565b9050919050565b600060208201905081810360008301526124dd81612223565b9050919050565b60006020820190506124f960008301846122cb565b92915050565b600060808201905061251460008301886122cb565b818103602083015261252781868861203b565b905061253660408301856122cb565b6125436060830184611f6f565b9695505050505050565b600060a08201905061256260008301886122cb565b818103602083015261257481876120a1565b905061258360408301866122cb565b61259060608301856122cb565b61259d6080830184611f6f565b9695505050505050565b60006125b16125c2565b90506125bd828261282d565b919050565b6000604051905090565b600067ffffffffffffffff8211156125e7576125e6612965565b5b6125f082612994565b9050602081019050919050565b6000819050602082019050919050565b600081519050919050565b600081519050919050565b600081519050919050565b6000602082019050919050565b600082825260208201905092915050565b600082825260208201905092915050565b600082825260208201905092915050565b600082825260208201905092915050565b600081905092915050565b6000612695826127af565b91506126a0836127af565b9250827fffffffffffffffffffffffffffffffffffffffffffffffffffffffffffffffff038211156126d5576126d46128d8565b5b828201905092915050565b60006126eb826127af565b91506126f6836127af565b92508261270657612705612907565b5b828204905092915050565b600061271c826127af565b9150612727836127af565b92508282101561273a576127396128d8565b5b828203905092915050565b60006127508261278f565b9050919050565b60008115159050919050565b60007fffffffff0000000000000000000000000000000000000000000000000000000082169050919050565b600073ffffffffffffffffffffffffffffffffffffffff82169050919050565b6000819050919050565b82818337600083830152505050565b60005b838110156127e65780820151818401526020810190506127cb565b838111156127f5576000848401525b50505050565b6000600282049050600182168061281357607f821691505b6020821081141561282757612826612936565b5b50919050565b61283682612994565b810181811067ffffffffffffffff8211171561285557612854612965565b5b80604052505050565b6000612869826127af565b91507fffffffffffffffffffffffffffffffffffffffffffffffffffffffffffffffff82141561289c5761289b6128d8565b5b600182019050919050565b60006128b2826127af565b91506128bd836127af565b9250826128cd576128cc612907565b5b828206905092915050565b7f4e487b7100000000000000000000000000000000000000000000000000000000600052601160045260246000fd5b7f4e487b7100000000000000000000000000000000000000000000000000000000600052601260045260246000fd5b7f4e487b7100000000000000000000000000000000000000000000000000000000600052602260045260246000fd5b7f4e487b7100000000000000000000000000000000000000000000000000000000600052604160045260246000fd5b6000601f19601f8301169050919050565b7f4552433732313a207472616e7366657220746f206e6f6e20455243373231526560008201527f63656976657220696d706c656d656e7465720000000000000000000000000000602082015250565b7f4552433732313a207472616e736665722066726f6d20696e636f72726563742060008201527f6f776e6572000000000000000000000000000000000000000000000000000000602082015250565b7f4552433732313a207472616e7366657220746f20746865207a65726f2061646460008201527f7265737300000000000000000000000000000000000000000000000000000000602082015250565b7f4552433732313a20617070726f766520746f2063616c6c657200000000000000600082015250565b7f4552433732313a2061646472657373207a65726f206973206e6f74206120766160008201527f6c6964206f776e65720000000000000000000000000000000000000000000000602082015250565b7f4552433732313a20617070726f76652063616c6c6572206973206e6f7420746f60008201527f6b656e206f776e6572206e6f7220617070726f76656420666f7220616c6c0000602082015250565b7f4552433732313a20696e76616c696420746f6b656e2049440000000000000000600082015250565b7f4552433732313a20617070726f76616c20746f2063757272656e74206f776e6560008201527f7200000000000000000000000000000000000000000000000000000000000000602082015250565b7f4552433732313a2063616c6c6572206973206e6f7420746f6b656e206f776e6560008201527f72206e6f7220617070726f766564000000000000000000000000000000000000602082015250565b612c2981612745565b8114612c3457600080fd5b50565b612c4081612757565b8114612c4b57600080fd5b50565b612c5781612763565b8114612c6257600080fd5b50565b612c6e816127af565b8114612c7957600080fd5b5056fea264697066735822122041a1ab52e10980d1904f70eed01df020210f8bfc0e9870464177e6f5f5f69c2c64736f6c63430008040033",
  "linkReferences": {},
  "deployedLinkReferences": {}
}